:040000002BEF0DF0E5
:08000800046ED8CF05F0E0CF33
:1000100006F00001E9CF0CF0EACF07F0E1CF08F0DD
:10002000E2CF09F0D9CF0AF0DACF0BF0F3CF12F01C
:10003000F4CF13F0FACF14F0F5CF15F0F6CF16F099
:10004000F7CF17F000C00EF001C00FF002C010F0A3
:1000500003C011F09DAA30EF00F09EBAB5EF01F099
:100060000EC000F00FC001F010C002F011C003F08C
:100070000CC0E9FF07C0EAFF078E08C0E1FF09C016
:10008000E2FF0AC0D9FF0BC0DAFF12C0F3FF13C0B2
:10009000F4FF14C0FAFF15C0F5FF16C0F6FF17C035
:1000A000F7FF045006C0E0FF05C0D8FF1000F76A54
:1000B000BE0FF66E000EF7220900F5501200280C54
:1000C0000106D00FF66E000EF7220900F55012005F
:1000D0000308000000000001085F000000000308A2
:1000E00003000300000508143E143E140408246AAB
:1000F0002B1200050863130864630508364956206F
:10010000500108030000000003081C224100000306
:100110000841221C0000050828180E1828050808A8
:10012000083E08080208B07000000004080808082B
:100130000800020860600000000408601806010062
:1001400004083E41413E000308427F40000004088D
:100150006251494600040822414936000408181437
:10016000127F000408274545390004083E494930FC
:1001700000040861110907000408364949360004E3
:10018000080649493E0002085000000000020880AD
:100190005000000003081028440000030814141441
:1001A0000000030844281000000408025909060052
:1001B00005083E49555D0E04087E11117E000408B5
:1001C0007F4949360004083E4141220004087F412E
:1001D000413E0004087F4949410004087F090901A4
:1001E0000004083E41497A0004087F08087F0003A4
:1001F00008417F41000004083040413F0004087F6F
:100200000814630004087F4040400005087F020C8A
:10021000027F05087F0408107F04083E41413E002C
:1002200004087F0909060004083E4141BE00040895
:100230007F09097600040846494932000508010192
:100240007F010104083F40403F0005080F30403067
:100250000F05083F4038403F050863140814630544
:100260000807087008070408615149470002087F21
:1002700041000000040801061860000208417F00E8
:100280000000030802010200000408404040400052
:1002900002080102000000040820545478000408F9
:1002A0007F44443800040838444428000408384493
:1002B000447F00040838545418000308047E0500E5
:1002C00000040898A4A4780004087F0404780003BC
:1002D00008447D40000004084080847D0004087FBD
:1002E000102844000308417F40000005087C047C7E
:1002F000047804087C040478000408384444380076
:100300000408FC242418000408182424FC00040811
:100310007C08040400040848545424000308043FE3
:1003200044000004083C40407C0005081C2040209C
:100330001C05083C403C403C050844281028440467
:10034000089CA0A07C00030864544C00000308082B
:100350003641000001087F00000000030841360814
:1003600000000408080408040000036A0101975112
:10037000770FE96E010E0320EA6E9EAAFED7AECF7C
:10038000EFFF97C1FFF1010E97251F0B976F985153
:10039000975D02E1FFC197F19E9A000130EF00F0F6
:1003A0000C2A204D415452494345204C4544202AB3
:1003B00000000A2A202026204D41583732313920AA
:1003C000202A00005072696E742053656C66546573
:1003D00073742E2E2E005072696E7420446566610F
:1003E000756C742054657874202853454D49292E26
:1003F0002E2E000057726F6E6720496E74656E7303
:100400006974792056616C75652021212100496E3F
:1004100074656E73697479202D3E2025752028251A
:100420007529000057726F6E6720537065656420F0
:1004300056616C756520212121005370656564202B
:100440002D3E20257520282575290000456E7465F0
:1004500072207465787420616E64207072657373A5
:10046000202772657475726E2720696E2074686526
:1004700020656E6420286D61782E203435206361FC
:100480007261637465726573292000002A2A2A2A22
:100490002A2A2A2A2A2A2A2A2A2A2A2A2A2A2A2ABC
:1004A0002A2A2A2A2A2A2A2A2A2A2A2A2A2A2A2AAC
:1004B0002A2A2A2A2A2A00002A2048454C50204667
:1004C0006F722050726F6772616D6D6520204D6193
:1004D0007837323139204C6564204D617472697807
:1004E000202A00002A2A2A2A2A2A2A2A2A2A2A2ACA
:1004F0002A2A2A2A2A2A2A2A2A2A2A2A2A2A2A2A5C
:100500002A2A2A2A2A2A2A2A2A2A2A2A2A2A00009F
:100510002A202349203D2053657420496E74656E5E
:1005200073697479202830202D203929202020203B
:100530002020202020202020202A00002A202353B1
:10054000203D205365742053706565642028302059
:100550002D2039292020202020202020202020206C
:1005600020202020202A00002A20234D203D204545
:100570006E746572205465787420284D617820343B
:100580003520636172616374657265732920202070
:10059000202A00002A202354203D2052756E20532B
:1005A000656C665465737420202020202020202054
:1005B000202020202020202020202020202A000071
:1005C0002A202344203D2052756E204465666175C3
:1005D0006C742054657874202853454D4929202097
:1005E0002020202020202020202A00002A2023480C
:1005F000203D20546869732048656C702050616705
:1006000065202020202020202020202020202020A5
:1006100020202020202A00002A2A2A2A2A2A2A2AC0
:100620002A2A2A2A2A2A2A2A2A2A2A2A2A2A2A2A2A
:100630002A2A2A2A2A2A2A2A2A2A2A2A2A2A2A2A1A
:100640002A2A00000101A7B102D08A9801D08A8825
:100650009398A7B302D08A9A01D08A8A939AA7B5B1
:1006600002D08A9C01D08A8C939CA7B702D08A9E24
:1006700001D08A8E939E000093968A8600D093962E
:100680008A960001120096908D900101A45303E018
:1006900096908D8002D096908D9093968A96A539EB
:1006A000A66F0F0EA617A6C1A7F10001CBDF0101AF
:1006B000A5510F0BA66FA76F0001C4DF4D0E006E92
:1006C000002EFED700D01200010EEA6EE20EE96E97
:1006D000EF500EE0070E016E006A002EFED7012ECD
:1006E000FBD7C70E006E002EFED70000EF2EF2D70C
:1006F0001200010E01019D6F9D5103080DE3A46BD3
:10070000200EA56F0001BFDF020E0101E26F0001A4
:10071000DBDF01019D2BF0D79D6B9D51030812E398
:10072000036A9D510001C3DC01019E6FA46BA56F9C
:100730000001A9DF020E0101E26F0001C5DF010126
:100740009D2BEBD700011EEF06F0010E0101A15D0C
:10075000FC0F15E2040F0001CBEF03F0800E010146
:10076000A26F0DD0C00E0101A26F09D0940E01013D
:10077000A26F05D0D40E0101A26F01D00101010EBC
:10078000A05DA227A2518009A36FA46BA56F0001F1
:100790007ADF14EF04F0E824F76AF736B10FF66E4B
:1007A000070EF7220A00F550FA6E0800F550F96EB0
:1007B0005C0764076C07740701019F510C0A000174
:1007C00007E0060A13E0020A1AE0090A1FE025D032
:1007D0000101A46B010EA56F000155DF010E6D6FC5
:1007E000020E0101E26F00016FDF1ED06D2B010EC2
:1007F0000101A06F6DC0A1F10001A7D715D00101C3
:10080000A46B100EA56F00013EDF0ED0010E01019A
:10081000A46FA56B000137DF07D0010E0101A46FA3
:100820009FC1A5F100012FDF20EF04F00900F55270
:100830000CE0F6CF9DF1F7CF9EF1F5CF9FF1BCD73D
:100840009DC1F6FF9EC1F7FFF1D712009DC119F0BF
:100850009EC11AF09FC11BF0A0C11CF00101A16B49
:10086000A1514F080AE3036AA1511D0FE96E000E62
:100870000320EA6EEF6AA12BF3D7000138EF06F0F0
:100880000101F951070B006EF931016E013201329D
:100890001F0E01160150FB25E96E000EFC21EA6EC9
:1008A000016A012A002A01D00136002EFDD7FA5331
:1008B00003E00150EF1203D0011E0150EF160001BA
:1008C00012000101F86BF8510708D8A077D0F65351
:1008D00024E1010E006EF851016E04E0D89000365C
:1008E000012EFCD70050F71502E1000E01D0010ED9
:1008F000F4C1F9F1FA6F0F0EFC6F890EFB6F000166
:10090000BFDFF4C1F9F10101FA6B0F0EFC6F920E1B
:10091000FB6F0001B5DF26D00101070ED880F85526
:10092000016E010E006E015204E0D8900036012ED7
:10093000FCD70050F71502E1000E01D0010EF4C102
:10094000F9F1FA6F0F0EFC6F890EFB6F000198DF53
:10095000F4C1F9F10101FA6B0F0EFC6F920EFB6FFF
:1009600000018EDFF5C1F9F1010E0101FA6F0F0EE2
:10097000FC6F890EFB6F000183DFF5C1F9F1010106
:10098000FA6B0F0EFC6F920EFB6F000179DFF5C161
:10099000F9F10101FA6B0F0EFC6F890EFB6F00017C
:1009A0006FDFF5C1F9F10101FA6B0F0EFC6F920ECA
:1009B000FB6F000165DF0101F82B85D700011200F4
:1009C0001AC0F9F10101FA6B0F0EFC6F890EFB6F73
:1009D000000156DF1AC0F9F10101FA6B0F0EFC6F2E
:1009E000920EFB6F00014CDF0101A66B1C50A65D4F
:1009F00018E219C0F4F11BC0F5F1010EF66FA4C1A5
:100A0000F7F100015EDF19C0F4F11BC0F5F1010E32
:100A10000101F66FA5C1F7F1000153DF0101A62B1B
:100A2000E5D71AC0F9F1FA6B0F0EFC6F890EFB6F58
:100A3000000126DF1AC0F9F10101FA6B0F0EFC6FFD
:100A4000920EFB6F00011CDF1AC0F9F1010E0101CB
:100A5000FA6F0F0EFC6F890EFB6F000111DF1AC0D9
:100A6000F9F10101FA6B0F0EFC6F920EFB6F0001A2
:100A700007DF12001AC0F9F10101FA6B0F0EFC6FCB
:100A8000890EFB6F0001FCDE1AC0F9F10101FA6B5F
:100A90000F0EFC6F920EFB6F0001F2DE0101DE6BA8
:100AA0001C50DE5D26E2010EDC25DF6F19C0F4F17B
:100AB0001BC0F5F1010EF66FDFC1F7F1000101DF98
:100AC00019C0F4F11BC0F5F1010E0101F66FDDC193
:100AD000F7F10001F6DE0101DC51DE03F350036A99
:100AE0001D0FE96E000E0320EA6EDDC1EFFFDE2B65
:100AF000D7D71AC0F9F1FA6B0F0EFC6F890EFB6F96
:100B00000001BEDE1AC0F9F10101FA6B0F0EFC6F95
:100B1000920EFB6F0001B4DE1AC0F9F1010E010163
:100B2000FA6F0F0EFC6F890EFB6F0001A9DE1AC071
:100B3000F9F10101FA6B0F0EFC6F920EFB6F0001D1
:100B40009FDEADEF05F00101DB6BDB51070808E329
:100B5000DBC1DCF1DD6B00018DD70101DB2BF5D7AB
:100B6000DB6BDB514F080AE3036ADB511D0FE96EB3
:100B7000000E0320EA6EEF6ADB2BF3D700011200B0
:100B80000A0E0101A46FA3C1A5F1000119DF120033
:100B900019C0F9F10101FA6B0F0EFC6F920EFB6F99
:100BA00000016EDE1BC0F9F10101FA6B0F0EFC6F44
:100BB000920EFB6F000164DE1AC0F9F10101FA6BBD
:100BC0000F0EFC6F920EFB6F00015ADE1BC0F9F195
:100BD000010E0101FA6F0F0EFC6F890EFB6F000111
:100BE0004FDE1BC0F9F10101FA6B0F0EFC6F920E84
:100BF000FB6F000145DE0B0E0101A46F070EA56F10
:100C00000001DEDE090E0101A46FA56B0001D8DE34
:100C10000C0E0101A46F010EA56F0001D1DE0F0EB5
:100C20000101A46FA56B0001CBDE8DDF0F0E01016A
:100C3000A36F0001A5DF39EF06F05BD5A00EF66EBD
:100C4000030EF76EF3DDB20EF66E030EF76EEEDDF9
:100C5000640E0101E26F000137DD1A0E01019D6F84
:100C6000180E9E6F190E9F6F020EA06F0001EED539
:100C70008FD799C1A3F184DF9D8AC00EF212E7EFEE
:100C80000DF09EA8FED7AD6E12000900F5520DE0E2
:100C9000F6CFDBF1F7CFDCF1F5509EA8FED7AD6EB5
:100CA000DBC1F6FFDCC1F7FFF0D712000D0EE9DF64
:100CB0000A0EE7DF0A0EE5DF8C0EF66E040EF76E05
:100CC000E4DF0D0EDEDF0A0EDCDFB80EF66E040E7A
:100CD000F76EDBDF0D0ED5DF0A0ED3DFE40EF66E06
:100CE000040EF76ED2DF0D0ECCDF0A0ECADF100E37
:100CF000F66E050EF76EC9DF0D0EC3DF0A0EC1DFFB
:100D00003C0EF66E050EF76EC0DF0D0EBADF0A0E52
:100D1000B8DF680EF66E050EF76EB7DF0D0EB1DFA9
:100D20000A0EAFDF940EF66E050EF76EAEDF0D0EF7
:100D3000A8DF0A0EA6DFC00EF66E050EF76EA5DF61
:100D40000D0E9FDF0A0E9DDFEC0EF66E050EF76EA0
:100D50009CDF0D0E96DF0A0E94DF180EF66E060E5F
:100D6000F76E93DF0D0E8DDF0A0E8BDF0A0E89DF23
:100D70000A0E87DF120001019851975DFDE0036ABA
:100D80009851770FE96E010E0320EA6EEFCFDDF187
:100D9000010E98251F0B986FDDC101F000011200B4
:100DA0000101B251B419800BB66FB2AF05D0B11FBB
:100DB000B21FB12BD8B4B22BB4AF05D0B31FB41F40
:100DC000B32BD8B4B42BB151B303F3CF01F0F4CFAC
:100DD00000F0B403F3500026B251B303F3500020E7
:100DE000026EB6AF05D0011E021E012AD8B4022A37
:100DF000000151EF07F00101B251B419800BB66F39
:100E0000B2AF05D0B11FB21FB12BD8B4B22BB4AF63
:100E100005D0B31FB41FB32BD8B4B42B016A026A38
:100E2000006A036AB45102E1B35118E0100EB56FC5
:100E3000D890B137B23700360336B451035C02E1C3
:100E4000B351005C07E3B351005ED8A00306B45170
:100E5000035ED88001360236B52FEAD7B6AF05D08B
:100E6000011E021E012AD8B4022A000168EF07F011
:100E70000101A551A35DAD6FA651A459AE6FA95153
:100E8000AB5D006EAA51AC59036E00C0AFF1B06FFC
:100E9000AEC1B2F1ADC1B1F1B46F00C0B3F10001A8
:100EA0007FD702C0AEF101C0ADF10101A551A75D30
:100EB000006EA651A859036E00C0AFF1B06F02C01A
:100EC000B2F101C0B1F1B46F00C0B3F1000193D72A
:100ED00002C0AEF101C0ADF10101A9510124016EC2
:100EE000AA510220036E026E000112000900F6CF23
:100EF000A4F1F7CFA5F1F5509EA8FED7AD6EA4C121
:100F0000F6FFA5C1F7FF0101A32F01D002D0000118
:100F1000EDD7000112000101A651016AA55D03E2AF
:100F2000A5C100F00CD0006A080EA76FA5370036E7
:100F3000A651005CD8B0006E0136A72FF7D700018C
:100F400012000150A3C1A5F1640E0101A66F0001BA
:100F5000E2DF00C0A3F10150300E08E10101A4A3BB
:100F60000ED0A4B70CD0A4B9200E04D00101A497D0
:100F7000A499A481012601509EA8FED7AD6EA3C1FD
:100F8000A5F10A0EA66F0001C6DF00C0A3F1015053
:100F9000300E08E10101A4B70BD0A4A109D0A4B977
:100FA000200E0001012601509EA8FED7AD6E010162
:100FB000300EA327A3519EA8FED7AD6E00011200EC
:100FC0000101A151090812E20A0E00015ADE0D0EBC
:100FD00058DEF40EF66E030EF76E57DE0A0E51DE83
:100FE0000A0E4FDE0D0E4DDE43D00101A46BA1C1F0
:100FF000A3F1A66BA56BA86B090EA76FAA6B010ED8
:10100000A96FAC6B1F0EAB6F000132DF01C0A2F104
:101010000A0E37DE0D0E35DE0E0EF66E040EF76E7E
:101020000D0E0101A36F000161DFA2C1A3F11B0E30
:101030000101A46F000185DF200E9EA8FED7AD6ED2
:10104000280E9EA8FED7AD6EA1C1A3F11B0E010113
:10105000A46F000176DF290E9EA8FED7AD6E0A0EA2
:1010600010DE0A0E0EDE0D0E0CDEA2C1A3F188DD2D
:1010700026EF0DF00101A151090812E20A0E00014C
:1010800000DE0D0EFEDD240EF66E040EF76EFDDDA5
:101090000A0EF7DD0A0EF5DD0D0EF3DD40D001017D
:1010A000A46BA1C1A3F1A66BA56BA86B090EA76FDA
:1010B000AA6B640EA96FAC6B010EAB6F0001D8DE9A
:1010C00001C09AF10A0EDDDD0D0EDBDD3A0EF66E83
:1010D000040EF76E090E0101A36F000107DF9AC12C
:1010E000A3F11B0E0101A46F00012BDF200E9EA8AF
:1010F000FED7AD6E280E9EA8FED7AD6EA1C1A3F19E
:101100001B0E0101A46F00011CDF290E9EA8FED753
:10111000AD6E0A0EB6DD0A0EB4DD0D0EB2DD26EFA1
:101120000DF00101E251E403F3CF01F0F4CF00F040
:10113000E503F3500026E351E403F3500020026E70
:1011400000012CEF0BF00101ED31EF6FEF33EF33C6
:101150001F0EEF17ED51070BF06F1AC0F9F1FA6B84
:101160000F0EFC6F890EFB6F000140EC04F01AC0FB
:10117000F9F10101FA6B0F0EFC6F920EFB6F00018B
:1011800040EC04F00101F16B1C50F15D37E2EF51CE
:10119000F15D1CE1010EF025F26F19C0F4F11BC0E6
:1011A000F5F1010EF66FF2C1F7F1000161EC04F008
:1011B00019C0F4F11BC0F5F1010E0101F66FEEC18B
:1011C000F7F1000161EC04F016D0010119C0F4F14F
:1011D0001BC0F5F1010EF66FF76B000161EC04F036
:1011E00019C0F4F11BC0F5F1010E0101F66FF76BA8
:1011F000000161EC04F00101F12BC6D71AC0F9F12E
:10120000FA6B0F0EFC6F890EFB6F000140EC04F0CF
:101210001AC0F9F10101FA6B0F0EFC6F920EFB6F11
:10122000000140EC04F01AC0F9F1010E0101FA6F5F
:101230000F0EFC6F890EFB6F000140EC04F01AC02A
:10124000F9F10101FA6B0F0EFC6F920EFB6F0001BA
:1012500040EC04F0036A0101ED511D0FE96E000E30
:101260000320EA6EEEC1EFFF000112000101EF530F
:1012700017E0036AED511D0FE96E000E0320EA6EC0
:10128000036A010E026EEE51006E05E0D890023640
:101290000336002EFBD70250EF10006EEF6E1DD00C
:1012A000036AED511D0FE96E000E0320EA6E036A1A
:1012B000010E026EEE51006E05E0D8900236033644
:1012C000002EFBD70250006A0006001AFF0E031A18
:1012D0000050EF14006E0050EF6EED31F06FF03300
:1012E000F0331F0EF017ED51070BF16F1AC0F9F133
:1012F000FA6B0F0EFC6F890EFB6F000140EC04F0DF
:101300001AC0F9F10101FA6B0F0EFC6F920EFB6F20
:10131000000140EC04F00101F26B1C50F25D3EE272
:10132000F051F25D23E1010EF125F36F19C0F4F1E4
:101330001BC0F5F1010EF66FF3C1F7F1000161EC8E
:1013400004F0036A0101ED511D0FE96E000E032048
:10135000EA6EEFCFF7F119C0F4F11BC0F5F1010E01
:10136000F66F000161EC04F016D0010119C0F4F130
:101370001BC0F5F1010EF66FF76B000161EC04F094
:1013800019C0F4F11BC0F5F1010E0101F66FF76B06
:10139000000161EC04F00101F22BBFD71AC0F9F192
:1013A000FA6B0F0EFC6F890EFB6F000140EC04F02E
:1013B0001AC0F9F10101FA6B0F0EFC6F920EFB6F70
:1013C000000140EC04F01AC0F9F1010E0101FA6FBE
:1013D0000F0EFC6F890EFB6F000140EC04F01AC089
:1013E000F9F10101FA6B0F0EFC6F920EFB6F000119
:1013F00040EC04F059EF0AF00101E4C1E9FFE5C156
:10140000EAFFEFCFE6F1010EE425E96E000EE521DB
:10141000EA6EEFCFE7F1E75108081DE1E3531BE166
:10142000EA6BE651EA5D16E2EA51E225E86FE8511F
:101430004F080EE3020EEA25E425E96E000EE521D1
:10144000EA6EEFCFEEF1E8C1EDF100017CDE0101C3
:10145000EA2BE7D733D0EA6BE651EA5D2FE2EB6B7C
:10146000E751EB5D29E2EA51E225E86FEB51E32514
:10147000E96FE8514F081EE3E95107081BE3020E2C
:10148000EA25E425E96E000EE521EA6EEFCF00F0D3
:10149000EB51016E04E0D8900032012EFCD70050D1
:1014A000010BEC6FE8C1EDF1E9C1EEF1EF6F000166
:1014B000DDD60101EB2BD4D7EA2BCED7000154EFB8
:1014C0000BF00101E66BE651070871E3E6C1E7F1B5
:1014D0001AC0F9F1FA6B0F0EFC6F890EFB6F000159
:1014E00040EC04F01AC0F9F10101FA6B0F0EFC6F29
:1014F000920EFB6F000140EC04F00101E86B1C5000
:10150000E85D26E2010EE625E96F19C0F4F11BC083
:10151000F5F1010EF66FE9C1F7F1000161EC04F09D
:10152000036A0101E7511D0FE96E000E0320EA6E08
:10153000EFCFF7F119C0F4F11BC0F5F1010EF66F12
:10154000000161EC04F0080E0101E727E82BD7D772
:101550001AC0F9F1FA6B0F0EFC6F890EFB6F0001D8
:1015600040EC04F01AC0F9F10101FA6B0F0EFC6FA8
:10157000920EFB6F000140EC04F01AC0F9F1010E6D
:101580000101FA6F0F0EFC6F890EFB6F000140EC3A
:1015900004F01AC0F9F10101FA6B0F0EFC6F920E04
:1015A000FB6F000140EC04F00101E62B8CD7000139
:1015B0001BEF0BF01DC0E4F10101E56BE5514F0895
:1015C0001CE3036AE5511D0F016E000E032201C0EA
:1015D000E6F103C0E7F1010EE525036A1D0FE96E90
:1015E000000E0320EA6EEFCFE8F1E7C1EAFF01C089
:1015F000E9FFE8C1EFFFE52BE1D7E2530DE01C5016
:10160000080DF350FF0F036A1D0FE96E000E032053
:10161000EA6EE4C1EFFF0DD0E3530BE01C50080D60
:10162000F350FF0F036A1D0FE96E000E0320EA6EF0
:10163000EF6A000146D76EEF0BF00101DF511F0882
:10164000D8B04FD0200EDF5FE36BDFC1E2F1E56B76
:10165000070EE46F000165D502C0E3F1010101C08E
:10166000E2F1EA6A6E0EE96E02C0E7F101C0E6F14E
:10167000010E026E070E016EE7C1F7FFE651000191
:1016800061EC00F00A000900EF6AF5CFEEFF012ED1
:10169000FAD7022EF8D7200E0101E26FE36BE56B5B
:1016A0006E0EE46F0001A8D6200E6E250101E26FD8
:1016B000ED6FEE6B000147DD0101E16B010E0001F2
:1016C0006E250101E15D0DE2E0C1E2F1000164EC93
:1016D00003F00101E26BE36B00016CD70101E12B28
:1016E000EDD7000189EF0BF0DCC103F00101DBC194
:1016F000E9FFDCC1EAFFEF5213E0DCC103F0DBC11C
:10170000E9FFDCC1EAFFEFCFDFF1DDC1E0F100016D
:1017100094D70101DB2BD8B4DC2B0001E5D7010104
:10172000000112000101A06BA191200EA26FA36F16
:10173000A46FA56FA66FA76FA86FA96FAA6FAB6FF5
:10174000AC6FAD6FAE6FAF6FB06FB16FB26FB36FA5
:10175000B46FB56FB66FB76FB86FB96FBA6FBB6F55
:10176000BC6FBD6FBE6FBF6FC06FC16FC26FC36F05
:10177000C46FC56FC66FC76FC86FC96FCA6FCB6FB5
:10178000CC6FCD6FCE6FCF6FD06FD16FD26FD36F65
:10179000D46FD56FD66FD76FD86FD96B0001A3EC1C
:1017A00005F00A0E41EC06F00D0E41EC06F04C0E71
:1017B000F66E040EF76E45EC06F00A0E41EC06F0EC
:1017C0000A0E41EC06F00D0E41EC06F00101A1B14C
:1017D00042D09851975D3EE0050EE26F000164EC47
:1017E00003F0036A0101A051A20F016E010E032252
:1017F00001C0DBF103C0DCF10001BBEC06F0DCC191
:10180000EAFFDBC1E9FF01C0EFFF0101A0512D0894
:101810000AE3036AA051A20FE96E010E0320EA6EEB
:10182000EF500D0807E10A0E000141EC06F001013E
:10183000A18110D0036AA051A20FE96E010E03200E
:10184000EA6EEFCFDBF1DB51000141EC06F0010164
:10185000A02BBFD7BCD7DA6BDA5106080CE3036ABA
:10186000A051A20FE96E010E0320EA6E200EEF6E6A
:10187000A02BDA2BF1D7010EA025036AA20FE96E87
:10188000010E0320EA6EEF6A010EDC6FA20EDB6F21
:101890009AC1DDF1000128DF0D0E41EC06F00A0EC1
:1018A00041EC06F026EF0DF0A3EC05F00A0E41EC3A
:1018B00006F00D0E41EC06F0C40EF66E030EF76E48
:1018C00045EC06F00A0E41EC06F00A0E41EC06F07B
:1018D0000D0E41EC06F00101DC6B780EDB6F140E8F
:1018E000DD6F000101DF0101DC6BAE0EDB6F1E0E50
:1018F000DD6F0001F9DE0101DC6BE40EDB6F280E09
:10190000DD6F0001F1DE0101DC6BFE0EDB6F1E0EF0
:10191000DD6F0001E9DE010E0101DC6F160EDB6FE9
:10192000140EDD6F0001E0DE26EF0DF0A3EC05F0F4
:101930000A0E41EC06F00D0E41EC06F0D60EF66EE6
:10194000030EF76E45EC06F00A0E41EC06F00A0EA7
:1019500041EC06F00D0E41EC06F0010E0101DC6FCA
:10196000410EDB6F9AC1DDF10001BEDE26EF0DF006
:1019700001019851975DD8B46BD00001BBEC06F023
:1019800001C09DF101019D51230861E19D510001BC
:1019900041EC06F0BBEC06F001C09EF101019E5146
:1019A000000141EC06F001019E51490A00010BE0E3
:1019B0001A0A21E01E0A37E0190A37E0100A37E058
:1019C0000C0A37E039D0BBEC06F001C09FF10101F1
:1019D0009F51000141EC06F00A0E41EC06F00D0E9D
:1019E00041EC06F0300E01019F5DA06FA16F000178
:1019F000E0EF07F02BD0BBEC06F001C09FF1010136
:101A00009F51000141EC06F00A0E41EC06F00D0E6C
:101A100041EC06F0300E01019F5DA06FA16F000147
:101A20003AEF08F013D07ED611D03ED70FD07ED734
:101A30000DD056EC06F00AD001019851975D05E0F3
:101A40000001BBEC06F0F8D701010001010191D7BC
:101A50000001EAEF0DF0F86AD09E078EB8960C0EE2
:101A6000AF6EA60EAC6E900EAB6E0101976B986BCD
:101A70000F0E996F640E9A6F9C6B9B6BC150C00BDD
:101A80000F09C16E070EB46E80D0C00078204120CF
:101A9000422043204420452046204720482049201A
:101AA0004A204B204C204D204E204F2050205120CA
:101AB000522053205420552056205720582059207A
:101AC0005A20002061206220632064206520662067
:101AD0006720682069206A206B206C206D206E20B2
:101AE0006F20702071207220732074207520762062
:101AF0007720782079207A2000203120322033206E
:101B000034203520362037203820392030202D2031
:101B10003D20002021204020232024202520262095
:101B20002A20282029205F202B20002027202C205D
:101B30002E203B207E205D205B207C203C203E2010
:101B40003A205E207D2060207B202F203F08C0208F
:101B5000308000202A2053657276696365206427EF
:101B6000456C656374726F6E697175652026204DD2
:101B70006963726F656C656374726F6E69717565A8
:101B8000202A06C0200180000000000EF86E1A0E08
:101B9000F76E8A0EF66E0900F550006E000A13E02B
:101BA0000900F550016EE8BE05D00F0BEA6E090082
:101BB000F5CFE9FF01BC090001AC0900F5CFEEFF4C
:101BC000004EE9D7F9D7F86A00011DEF06F056EC90
:081BD00006F0CED6FED7FFD7C8
:020000040030CA
:0E0000003FCC391E008700000FC00FE00F40FC
:00000001FF
;PIC18F4550
;CRC=1B20  CREATED="26-févr.-19 14:46"
