:1000000001EF06F0F76A140FF66E000EF7220900F2
:10001000F55012007F888888887FFF919191916EBA
:100020007E8181818142FF818181817E81FF9191E9
:10003000919181FF919090807E818189894EFF10FE
:10004000101010FF0081FFFF8100060181FE80007B
:1000500081FF9924C38181FF81010103FF6018188A
:1000600060FFFF60100806FF7E818181817E81FF35
:10007000898888707E818589877EFF9898949361AE
:1000800062919191914EC081FFFF81C0FE010101FB
:1000900001FEFC02010102FCFF02040402FFC32472
:1000A000181824C3C0201F1F20C0C3858991A1C375
:1000B000F76AC00FF66E000EF7220900F550120025
:1000C000280C01060C2A204D415452494345204C2E
:1000D0004544202A00000A2A202026204D41583776
:1000E00032313920202A000073B102D08A9801D021
:1000F0008A88939873B302D08A9A01D08A8A939A95
:1001000073B502D08A9C01D08A8C939C73B702D0BD
:100110008A9E01D08A8E939E000093968A8600D094
:1001200093968A96120096908D90705303E0969065
:100130008D8002D096908D9093968A967139726FC9
:100140000F0E721772C073F0CFDF71510F0B726F09
:10015000736FCADF4D0E006E002EFED700D0120066
:10016000EA6A6C0EE96EEF500EE0070E016E006A4F
:10017000002EFED7012EFBD7C70E006E002EFED735
:100180000000EF2EF2D71200010E696F69510308CB
:1001900009E3706B200E716FC6DF020E6C6FE0DF3B
:1001A000692BF4D7696B695103080CE3036A695141
:1001B0007FDF6A6F706B716FB6DF020E6C6FD0DF1E
:1001C000692BF1D7B1EF01F0010E6D5DFC0F0EE26E
:1001D000040F01EF01F0800E6E6F08D0C00E6E6F3D
:1001E00005D0940E6E6F02D0D40E6E6F010E6C5D52
:1001F0006E276E5180096F6F706B716F94DF3CEFEB
:1002000001F0E824F76AF7361D0FF66E020EF722AA
:100210000A00F550FA6E0800F550F96ED601DC01BF
:10022000E201E8016B510C0A07E0060A0FE0020A3E
:1002300014E0090A17E01BD0706B010E716F73DFB9
:10024000010E556E020E6C6F8BDF16D0552A010E13
:100250006C6F55C06DF0B8D70FD0706B100E716F0A
:1002600062DF0AD0010E706F716B5DDF05D0010E89
:10027000706F6BC071F057DF48EF01F00900F55265
:100280000CE0F6CF69F0F7CF6AF0F5CF6BF0CAD784
:1002900069C0F6FF6AC0F7FFF1D71200C95083C0EA
:1002A000C9FFC730FEE3C9CF02F0C95082C0C9FF01
:1002B000C730FEE3C9CF01F012006DC070F06EC010
:1002C0006FF08C8070C083F06FC082F0E7DF8C909D
:1002D00012008C90000E956E090E6D6F6E6BEDDF47
:1002E0000A0E6D6F050E6E6FE8DF0B0E6D6F070E59
:1002F0006E6FE3DF0C0E6D6F010E6E6FDEDF0F0EA3
:100300006D6F6E6BDADFBFEF01F00A0E6D6F69C0C3
:100310006EF0D3DFC2EF01F06A6B6A5107080AE39F
:10032000036A6A51560FE96E000E0320EA6EEF6A07
:100330006A2BF3D712006B696A6B6A5107080FE3E7
:100340006B516B2B036A560FE96E000E0320EA6EA9
:10035000EFCF6EF06AC06DF0B0DF6A2BEED71200FF
:1003600013D7C40EF66E000EF76E88DFD60EF66E4B
:10037000000EF76E83DF640E6C6FF2DEAAD7020EFA
:10038000696FC3D7C9DFD7DF25EF06F0410E6A5D7D
:10039000060DF3CF6CF0070E6B6F6B5101080FE287
:1003A000036A6B51560FE96E000E0320EA6E6C5122
:1003B0006C2B036A27DE016EEF6E6B07EED70AEF38
:1003C00002F05DC06EF0070E6D6F6D531CE0036AA6
:1003D0006D51560F016E000E032201C06FF003C075
:1003E00070F0010E6D5D036A560FE96E000E03207A
:1003F000EA6EEFCF71F070C0EAFF01C0E9FF71C093
:10040000EFFF6D07E2D76EC056F01BEF02F0590EFA
:100410006A6FBCD790DF020E6A6FFA0E6C6FA0DEB7
:100420006A2FFBD7696B69511D080EE3010E6A6FD5
:100430006B6B6C6BC6D7050E6C6F92DE7CDF320E79
:100440006C6F8EDE692BEFD767DF75DF27EF06F065
:10045000D89078357B6FD89014347C6F7D6B7C514D
:100460007D5D0AE2036A7D51040FE96E000E0320F0
:10047000EA6EEF6A7D2BF3D7010E7B25036A040F2A
:10048000E96E000E0320EA6E79C0EFFF036A7B512C
:10049000040FE96E000E0320EA6E7AC0EFFF8C8035
:1004A0007CC07DF07D5320E0010E7D5D036A040F6A
:1004B000E96E000E0320EA6EEFCF7EF0020E7D5D46
:1004C000036A040FE96E000E0320EA6EEFCF7FF09F
:1004D0007EC081F07FC080F07EC083F07FC082F05C
:1004E000DDDE020E7D5FDED78C90120014506B5D56
:1004F00001E324D06C51070801E220D06B51080DB4
:10050000F3CF6EF06C516E25036A150FE96E000E85
:100510000320EA6E6DC0EFFF010E6C256F6F6C510A
:100520006E25036A150FE96E000E0320EA6EEFCF09
:100530007AF06BC078F06FC079F08ADF1200756BCB
:100540001450705D01E35DD07151070803E37251EF
:10055000070801E256D07051080DF3CF74F0800EF9
:10056000756F7251016E04E0D8907533012EFCD77F
:1005700073531CE071517425036A150F016E000E50
:10058000032201C076F003C077F071517425036A2D
:10059000150FE96E000E0320EA6EEF507511786FAB
:1005A00077C0EAFF01C0E9FFEF6E19D0751F7151E6
:1005B0007425036A150F016E000E032203C077F045
:1005C00071517425036A150FE96E000E0320EA6E5F
:1005D000EF50751577C0EAFF01C0E9FFEF6E010E1D
:1005E0007125766F71517425036A150FE96E000E3F
:1005F0000320EA6EEFCF7AF070C078F076C079F021
:1006000027DF26EF03F014506B5D01E321D06C511E
:10061000070801E21DD06F6B6F51070819E3070E41
:10062000D8806F55016E6DC06EF0015204E0D89015
:100630006E33012EFCD7010E6E176BC070F06FC0C9
:1006400071F06CC072F06EC073F079D76F2BE4D785
:100650001200030E6A6FE80E696F6B6B6C6B6D6B4B
:1006600045DF6B6B010E6C6F260E6D6F3FDF6B6BA2
:10067000020E6C6F490E6D6F39DF6B6B030E6C6F82
:10068000490E6D6F33DF6B6B040E6C6F490E6D6F2F
:100690002DDF6B6B050E6C6F490E6D6F27DF6B6B7B
:1006A000060E6C6F320E6D6F21DF6B6B070E6C6F79
:1006B0006D6B1CDF6AC06BF06B2B6B07D8B403D07B
:1006C0006C694EDDFAD769C06CF04ADD6B6B6C6B00
:1006D0006D6B0CDF6B6B010E6C6F200E6D6F06DFA8
:1006E0006B6B020E6C6F400E6D6F00DF6B6B030E59
:1006F0006C6F7D0E6D6FFADE6B6B040E6C6F6D6B45
:10070000F5DE6B6B050E6C6F6D6BF0DE6B6B060EC2
:100710006C6F6D6BEBDE6B6B070E6C6F6D6BE6DEFB
:100720006AC06BF06B2B6B07D8B403D06C6918DD13
:10073000FAD769C06CF014DD6B6B6C6B6D6BD6DE39
:100740006B6B010E6C6F7F0E6D6FD0DE6B6B020EEC
:100750006C6F6D6FCBDE6B6B030E6C6F040E6D6F89
:10076000C5DE6B6B040E6C6F6D6FC0DE6B6B050EC0
:100770006C6F020E6D6FBADE6B6B060E6C6F7F0EC8
:100780006D6FB4DE6B6B070E6C6F6D6BAFDE6AC0A6
:100790006BF06B2B6B07D8B403D06C69E1DCFAD734
:1007A00069C06CF0DDDC6B6B6C6B6D6B9FDE6B6B33
:1007B000010E6C6F200E6D6F99DE6B6B020E6C6F0D
:1007C000400E6D6F93DE6B6B030E6C6F7D0E6D6F65
:1007D0008DDE6B6B040E6C6F6D6B88DE6B6B050EC4
:1007E0006C6F6D6B83DE6B6B060E6C6F6D6B7EDEFC
:1007F0006B6B070E6C6F6D6B79DE6AC06BF06B2BE9
:100800006B07D8B403D06C69ABDCFAD769C06CF065
:10081000A7DC6B6B6C6B6D6B69DE6B6B010E6C6FC9
:10082000380E6D6F63DE6B6B020E6C6F400E6D6F7A
:100830005DDE6B6B030E6C6F400E6D6F57DE6B6B86
:10084000040E6C6F400E6D6F51DE6B6B050E6C6F9E
:10085000200E6D6F4BDE6B6B060E6C6F7C0E6D6F3A
:1008600045DE6B6B070E6C6F6D6B40DE6AC06BF024
:100870006B2B6B07D8B403D06C6972DCFAD769C0F4
:100880006CF06EDC6B6B6C6B6D6B30DE6B6B010E4A
:100890006C6F260E6D6F2ADE6B6B020E6C6F490E4D
:1008A0006D6F24DE6B6B030E6C6F490E6D6F1EDE79
:1008B0006B6B040E6C6F490E6D6F18DE6B6B050E63
:1008C0006C6F490E6D6F12DE6B6B060E6C6F320E25
:1008D0006D6F0CDE6B6B070E6C6F6D6B07DE6AC0A5
:1008E0006BF06B2B6B07D8B403D06C6939DCFAD78B
:1008F00069C06CF035DC010E6B6F6C6B6D6B83DE69
:10090000010E6B6F6C6F260E6D6F7DDE010E6B6FCF
:10091000020E6C6F490E6D6F76DE010E6B6F030E6B
:100920006C6F490E6D6F6FDE010E6B6F040E6C6F96
:10093000490E6D6F68DE010E6B6F050E6C6F490E10
:100940006D6F61DE010E6B6F060E6C6F320E6D6F98
:100950005ADE010E6B6F070E6C6F6D6B54DE6AC052
:100960006BF06B2B6B07D8B404D06C69B0EC00F063
:10097000F9D769C06CF0B0EC00F00A0E6B6F6C6BCD
:100980006D6B41DE010E6B6F6C6F200E6D6F3BDE89
:10099000010E6B6F020E6C6F400E6D6F34DE010E38
:1009A0006B6F030E6C6F7D0E6D6F2DDE010E6B6F26
:1009B000040E6C6F6D6B27DE010E6B6F050E6C6F96
:1009C0006D6B21DE010E6B6F060E6C6F6D6B1BDEA7
:1009D000010E6B6F070E6C6F6D6B15DE6AC06BF0EE
:1009E0006B2B6B07D8B404D06C69B0EC00F0F9D76E
:1009F00069C06CF0B0EC00F0010E6B6F6C6B6D6B4E
:100A000002DE010E6B6F6C6F7F0E6D6FFCDD010EF1
:100A10006B6F020E6C6F6D6FF6DD010E6B6F030E68
:100A20006C6F040E6D6FEFDD010E6B6F040E6C6F5B
:100A30006D6FE9DD010E6B6F050E6C6F020E6D6F51
:100A4000E2DD010E6B6F060E6C6F7F0E6D6FDBDDEE
:100A5000010E6B6F070E6C6F6D6BD5DD6AC06BF0AE
:100A60006B2B6B07D8B404D06C69B0EC00F0F9D7ED
:100A700069C06CF0B0EC00F0010E6B6F6C6B6D6BCD
:100A8000C2DD010E6B6F6C6F200E6D6FBCDD010E51
:100A90006B6F020E6C6F400E6D6FB5DD010E6B6FEC
:100AA000030E6C6F7D0E6D6FAEDD010E6B6F040E6D
:100AB0006C6F6D6BA8DD010E6B6F050E6C6F6D6B4F
:100AC000A2DD010E6B6F060E6C6F6D6B9CDD010E6F
:100AD0006B6F070E6C6F6D6B96DD6AC06BF06B2BE6
:100AE0006B07D8B404D06C69B0EC00F0F9D769C0DA
:100AF0006CF0B0EC00F0010E6B6F6C6B6D6B83DD16
:100B0000010E6B6F6C6F380E6D6F7DDD010E6B6FBC
:100B1000020E6C6F400E6D6F76DD010E6B6F030E73
:100B20006C6F400E6D6F6FDD010E6B6F040E6C6F9E
:100B3000400E6D6F68DD010E6B6F050E6C6F200E41
:100B40006D6F61DD010E6B6F060E6C6F7C0E6D6F4D
:100B50005ADD010E6B6F070E6C6F6D6B54DD6AC052
:100B60006BF06B2B6B07D8B404D06C69B0EC00F061
:100B7000F9D769C06CF0B0EC00F0010E6B6F6C6BD4
:100B80006D6B41DD010E6B6F6C6F260E6D6F3BDD83
:100B9000010E6B6F020E6C6F490E6D6F34DD010E2E
:100BA0006B6F030E6C6F490E6D6F2DDD010E6B6F59
:100BB000040E6C6F490E6D6F26DD010E6B6F050E16
:100BC0006C6F490E6D6F1FDD010E6B6F060E6C6F43
:100BD000320E6D6F18DD010E6B6F070E6C6F6D6B53
:100BE00012DD6AC06BF06B2B6B07D8B404D06C6954
:100BF000B0EC00F0F9D769C06CF0B0EC00F02CEF6D
:100C000006F0F86AD09EC69A000EC76E310EC66E08
:100C1000949E93809392080E146E320E5E6E050EB3
:100C20005F6E606B010E616F626F636B030E646FCA
:100C3000010E656F6669686B676BC150C00B0F0969
:100C4000C16E070EB46EB0EF01F007EF02F08CEC4E
:0C0C500001F09BEC01F0FDD4F8D7FFD7B9
:020000040030CA
:0E0000003FCC391E008700000FC00FE00F40FC
:00000001FF
;PIC18F4550
;CRC=7A1A  CREATED="26-févr.-19 14:44"
